{
  "contractName": "Voting",
  "abi": [
    {
      "constant": true,
      "inputs": [
        {
          "name": "",
          "type": "bytes32"
        }
      ],
      "name": "votesReceived",
      "outputs": [
        {
          "name": "value",
          "type": "uint256"
        }
      ],
      "payable": false,
      "stateMutability": "view",
      "type": "function"
    },
    {
      "constant": true,
      "inputs": [],
      "name": "totalTokens",
      "outputs": [
        {
          "name": "",
          "type": "uint256"
        }
      ],
      "payable": false,
      "stateMutability": "view",
      "type": "function"
    },
    {
      "constant": true,
      "inputs": [],
      "name": "tokenPrice",
      "outputs": [
        {
          "name": "",
          "type": "uint256"
        }
      ],
      "payable": false,
      "stateMutability": "view",
      "type": "function"
    },
    {
      "constant": true,
      "inputs": [
        {
          "name": "",
          "type": "uint256"
        }
      ],
      "name": "candidateList",
      "outputs": [
        {
          "name": "",
          "type": "bytes32"
        }
      ],
      "payable": false,
      "stateMutability": "view",
      "type": "function"
    },
    {
      "constant": true,
      "inputs": [
        {
          "name": "",
          "type": "address"
        }
      ],
      "name": "voterInfo",
      "outputs": [
        {
          "name": "voterAddress",
          "type": "address"
        },
        {
          "name": "tokensBought",
          "type": "uint256"
        }
      ],
      "payable": false,
      "stateMutability": "view",
      "type": "function"
    },
    {
      "constant": true,
      "inputs": [],
      "name": "balanceTokens",
      "outputs": [
        {
          "name": "",
          "type": "uint256"
        }
      ],
      "payable": false,
      "stateMutability": "view",
      "type": "function"
    },
    {
      "inputs": [
        {
          "name": "tokens",
          "type": "uint256"
        },
        {
          "name": "pricePerToken",
          "type": "uint256"
        },
        {
          "name": "candidateNames",
          "type": "bytes32[]"
        }
      ],
      "payable": false,
      "stateMutability": "nonpayable",
      "type": "constructor"
    },
    {
      "constant": true,
      "inputs": [
        {
          "name": "candidate",
          "type": "bytes32"
        }
      ],
      "name": "totalVotesFor",
      "outputs": [
        {
          "name": "",
          "type": "uint256"
        },
        {
          "name": "",
          "type": "uint256[]"
        }
      ],
      "payable": false,
      "stateMutability": "view",
      "type": "function"
    },
    {
      "constant": false,
      "inputs": [
        {
          "name": "candidate",
          "type": "bytes32"
        },
        {
          "name": "isNotFake",
          "type": "uint256"
        }
      ],
      "name": "voteForCandidate",
      "outputs": [],
      "payable": false,
      "stateMutability": "nonpayable",
      "type": "function"
    },
    {
      "constant": false,
      "inputs": [
        {
          "name": "value",
          "type": "uint256"
        }
      ],
      "name": "incrementTokenValue",
      "outputs": [],
      "payable": false,
      "stateMutability": "nonpayable",
      "type": "function"
    },
    {
      "constant": true,
      "inputs": [
        {
          "name": "candidate",
          "type": "bytes32"
        }
      ],
      "name": "indexOfCandidate",
      "outputs": [
        {
          "name": "",
          "type": "uint256"
        }
      ],
      "payable": false,
      "stateMutability": "view",
      "type": "function"
    },
    {
      "constant": false,
      "inputs": [],
      "name": "buy",
      "outputs": [
        {
          "name": "",
          "type": "uint256"
        }
      ],
      "payable": true,
      "stateMutability": "payable",
      "type": "function"
    },
    {
      "constant": true,
      "inputs": [],
      "name": "tokensSold",
      "outputs": [
        {
          "name": "",
          "type": "uint256"
        }
      ],
      "payable": false,
      "stateMutability": "view",
      "type": "function"
    },
    {
      "constant": true,
      "inputs": [
        {
          "name": "user",
          "type": "address"
        }
      ],
      "name": "voterDetails",
      "outputs": [
        {
          "name": "",
          "type": "uint256"
        },
        {
          "name": "",
          "type": "uint256[]"
        }
      ],
      "payable": false,
      "stateMutability": "view",
      "type": "function"
    },
    {
      "constant": false,
      "inputs": [
        {
          "name": "account",
          "type": "address"
        }
      ],
      "name": "transferTo",
      "outputs": [],
      "payable": false,
      "stateMutability": "nonpayable",
      "type": "function"
    },
    {
      "constant": true,
      "inputs": [],
      "name": "allCandidates",
      "outputs": [
        {
          "name": "",
          "type": "bytes32[]"
        }
      ],
      "payable": false,
      "stateMutability": "view",
      "type": "function"
    }
  ],
  "bytecode": "0x608060405234801561001057600080fd5b50604051610e52380380610e52833981018060405281019080805190602001909291908051906020019092919080518201929190505050806002908051906020019061005d92919061007b565b508260038190555082600481905550816005819055505050506100f3565b8280548282559060005260206000209081019282156100bd579160200282015b828111156100bc57825182906000191690559160200191906001019061009b565b5b5090506100ca91906100ce565b5090565b6100f091905b808211156100ec5760008160009055506001016100d4565b5090565b90565b610d50806101026000396000f3006080604052600436106100db576000357c0100000000000000000000000000000000000000000000000000000000900463ffffffff1680632f265cf7146100e0578063518ab2a81461016d5780635938750d146101985780636b2dc6b5146102375780637021939f146102725780637e1c0c09146102b75780637ff9b596146102e257806381c407151461030d578063a03fa7e314610379578063a6f2ae3a146103bc578063b13c744b146103da578063cdf58d3514610423578063e19e34db146104ad578063e4494a0f146104da578063ecd098b014610505575b600080fd5b3480156100ec57600080fd5b5061010f600480360381019080803560001916906020019092919050505061054a565b6040518083815260200180602001828103825283818151815260200191508051906020019060200280838360005b8381101561015857808201518184015260208101905061013d565b50505050905001935050505060405180910390f35b34801561017957600080fd5b506101826105e6565b6040518082815260200191505060405180910390f35b3480156101a457600080fd5b506101d9600480360381019080803573ffffffffffffffffffffffffffffffffffffffff1690602001909291905050506105f4565b6040518083815260200180602001828103825283818151815260200191508051906020019060200280838360005b83811015610222578082015181840152602081019050610207565b50505050905001935050505060405180910390f35b34801561024357600080fd5b506102706004803603810190808035600019169060200190929190803590602001909291905050506106d6565b005b34801561027e57600080fd5b506102a160048036038101908080356000191690602001909291905050506109b9565b6040518082815260200191505060405180910390f35b3480156102c357600080fd5b506102cc6109d7565b6040518082815260200191505060405180910390f35b3480156102ee57600080fd5b506102f76109dd565b6040518082815260200191505060405180910390f35b34801561031957600080fd5b506103226109e3565b6040518080602001828103825283818151815260200191508051906020019060200280838360005b8381101561036557808201518184015260208101905061034a565b505050509050019250505060405180910390f35b34801561038557600080fd5b506103ba600480360381019080803573ffffffffffffffffffffffffffffffffffffffff169060200190929190505050610a3f565b005b6103c4610aa0565b6040518082815260200191505060405180910390f35b3480156103e657600080fd5b5061040560048036038101908080359060200190929190505050610ba8565b60405180826000191660001916815260200191505060405180910390f35b34801561042f57600080fd5b50610464600480360381019080803573ffffffffffffffffffffffffffffffffffffffff169060200190929190505050610bcb565b604051808373ffffffffffffffffffffffffffffffffffffffff1673ffffffffffffffffffffffffffffffffffffffff1681526020018281526020019250505060405180910390f35b3480156104b957600080fd5b506104d860048036038101908080359060200190929190505050610c0f565b005b3480156104e657600080fd5b506104ef610c58565b6040518082815260200191505060405180910390f35b34801561051157600080fd5b506105346004803603810190808035600019169060200190929190505050610c5e565b6040518082815260200191505060405180910390f35b6000606060016000846000191660001916815260200190815260200160002060000154600160008560001916600019168152602001908152602001600020600101808054806020026020016040519081016040528092919081815260200182805480156105d657602002820191906000526020600020905b8154815260200190600101908083116105c2575b5050505050905091509150915091565b600060045460035403905090565b600060606000808473ffffffffffffffffffffffffffffffffffffffff1673ffffffffffffffffffffffffffffffffffffffff168152602001908152602001600020600101546000808573ffffffffffffffffffffffffffffffffffffffff1673ffffffffffffffffffffffffffffffffffffffff168152602001908152602001600020600201808054806020026020016040519081016040528092919081815260200182805480156106c657602002820191906000526020600020905b8154815260200190600101908083116106b2575b5050505050905091509150915091565b60008060006106e485610c5e565b92507fffffffffffffffffffffffffffffffffffffffffffffffffffffffffffffffff83141561071357600080fd5b60008060003373ffffffffffffffffffffffffffffffffffffffff1673ffffffffffffffffffffffffffffffffffffffff1681526020019081526020016000206002018054905014156107ec57600091505b6002805490508210156107eb576000803373ffffffffffffffffffffffffffffffffffffffff1673ffffffffffffffffffffffffffffffffffffffff168152602001908152602001600020600201600090806001815401808255809150509060018203906000526020600020016000909192909190915055508180600101925050610765565b5b6108846000803373ffffffffffffffffffffffffffffffffffffffff1673ffffffffffffffffffffffffffffffffffffffff16815260200190815260200160002060020180548060200260200160405190810160405280929190818152602001828054801561087a57602002820191906000526020600020905b815481526020019060010190808311610866575b5050505050610cdb565b6000803373ffffffffffffffffffffffffffffffffffffffff1673ffffffffffffffffffffffffffffffffffffffff1681526020019081526020016000206001015403905060018110156108d757600080fd5b600180600087600019166000191681526020019081526020016000206000016000828254019250508190555060016000866000191660001916815260200190815260200160002060010184908060018154018082558091505090600182039060005260206000200160009091929091909150555060016000803373ffffffffffffffffffffffffffffffffffffffff1673ffffffffffffffffffffffffffffffffffffffff1681526020019081526020016000206002018481548110151561099b57fe5b90600052602060002001600082825401925050819055505050505050565b60016020528060005260406000206000915090508060000154905081565b60035481565b60055481565b60606002805480602002602001604051908101604052809291908181526020018280548015610a3557602002820191906000526020600020905b81546000191681526020019060010190808311610a1d575b5050505050905090565b8073ffffffffffffffffffffffffffffffffffffffff166108fc3073ffffffffffffffffffffffffffffffffffffffff16319081150290604051600060405180830381858888f19350505050158015610a9c573d6000803e3d6000fd5b5050565b60008060055434811515610ab057fe5b049050600454811115610ac257600080fd5b336000803373ffffffffffffffffffffffffffffffffffffffff1673ffffffffffffffffffffffffffffffffffffffff16815260200190815260200160002060000160006101000a81548173ffffffffffffffffffffffffffffffffffffffff021916908373ffffffffffffffffffffffffffffffffffffffff160217905550806000803373ffffffffffffffffffffffffffffffffffffffff1673ffffffffffffffffffffffffffffffffffffffff16815260200190815260200160002060010160008282540192505081905550806004600082825403925050819055508091505090565b600281815481101515610bb757fe5b906000526020600020016000915090505481565b60006020528060005260406000206000915090508060000160009054906101000a900473ffffffffffffffffffffffffffffffffffffffff16908060010154905082565b806000803373ffffffffffffffffffffffffffffffffffffffff1673ffffffffffffffffffffffffffffffffffffffff1681526020019081526020016000206001018190555050565b60045481565b600080600090505b600280549050811015610cb1578260001916600282815481101515610c8757fe5b9060005260206000200154600019161415610ca457809150610cd5565b8080600101915050610c66565b7fffffffffffffffffffffffffffffffffffffffffffffffffffffffffffffffff91505b50919050565b6000806000809150600090505b8351811015610d1a578381815181101515610cff57fe5b90602001906020020151820191508080600101915050610ce8565b81925050509190505600a165627a7a7230582016eed1535aa367d74335a69a38c046ba047d9d6bf2082a54b3a459d090fa28700029",
  "source": "pragma solidity ^0.4.10; //We have to specify what version of the compiler this code will use\n\ncontract Voting {\n\n\t// We use the struct datatype to store the voter information.\n\tstruct voter {\n\t\taddress voterAddress; // The address of the voter\n\t\tuint tokensBought;    // The total no. of tokens this voter owns\n\t\tuint[] tokensUsedPerCandidate;\n\t}\n\n\tstruct vote {\n\t\tuint value;\n\t\tuint[] valueFor;\n\t}\n\n\t/* mapping is equivalent to an associate array or hash\n\t The key of the mapping is candidate name stored as type bytes32 and value is\n\t an unsigned integer which used to store the vote count\n\t */\n\n\tmapping (address => voter) public voterInfo;\n\n\t/* Solidity doesn't let you return an array of strings yet. We will use an array of bytes32\n\t instead to store the list of candidates\n\t */\n\n\tmapping (bytes32 => vote) public votesReceived;\n\n\tbytes32[] public candidateList;\n\n\tuint public totalTokens; // Total no. of tokens available for this election\n\tuint public balanceTokens; // Total no. of tokens still available for purchase\n\tuint public tokenPrice; // Price per token\n\n\t/* When the contract is deployed on the blockchain, we will initialize\n\t the total number of tokens for sale, cost per token and all the candidates\n\t */\n\t \n\tfunction Voting(uint tokens, uint pricePerToken, bytes32[] candidateNames) {\n\t\tcandidateList = candidateNames;\n\t\ttotalTokens = tokens;\n\t\tbalanceTokens = tokens;\n\t\ttokenPrice = pricePerToken;\n\t}\n\n\tfunction totalVotesFor(bytes32 candidate) constant returns (uint, uint[]) {\n\t\treturn (votesReceived[candidate].value, votesReceived[candidate].valueFor);\n\t}\n\n\t/* Instead of just taking the candidate name as an argument, we now also\n\t require the no. of tokens this voter wants to vote for the candidate\n\t */\n\tfunction voteForCandidate(bytes32 candidate, uint isNotFake) {\n\t\tuint index = indexOfCandidate(candidate);\n\t\tif (index == uint(-1)) throw;\n\n\t\t// msg.sender gives us the address of the account/voter who is trying\n\t\t// to call this function\n\t\tif (voterInfo[msg.sender].tokensUsedPerCandidate.length == 0) {\n\t\t\tfor(uint i = 0; i < candidateList.length; i++) {\n\t\t\t\tvoterInfo[msg.sender].tokensUsedPerCandidate.push(0);\n\t\t\t}\n\t\t}\n\n\t\t//Make sure this voter has enough tokens to cast the vote\n\t\tuint availableTokens = voterInfo[msg.sender].tokensBought - totalTokensUsed(voterInfo[msg.sender].tokensUsedPerCandidate);\n\t\tif (availableTokens < 1) throw;\n\n\t\tvotesReceived[candidate].value += 1;\n\t\tvotesReceived[candidate].valueFor.push(uint(isNotFake));\n\t\t// Store how many tokens were used for this candidate\n\t\tvoterInfo[msg.sender].tokensUsedPerCandidate[index] += 1;\n\t}\n\n\n\t// Return the sum of all the tokens used by this voter.\n\tfunction totalTokensUsed(uint[] _tokensUsedPerCandidate) private constant returns (uint) {\n\t\tuint totalUsedTokens = 0;\n\t\tfor(uint i = 0; i < _tokensUsedPerCandidate.length; i++) {\n\t\t\ttotalUsedTokens += _tokensUsedPerCandidate[i];\n\t\t}\n\t\treturn totalUsedTokens;\n\t}\n\n\tfunction incrementTokenValue(uint value) {\n\t\tvoterInfo[msg.sender].tokensBought = value;\n\t}\n\n\tfunction indexOfCandidate(bytes32 candidate) constant returns (uint) {\n\t\tfor(uint i = 0; i < candidateList.length; i++) {\n\t\t\tif (candidateList[i] == candidate) {\n\t\t\t\treturn i;\n\t\t\t}\n\t\t}\n\t\treturn uint(-1);\n\t}\n\n\t/* This function is used to purchase the tokens. Note the keyword 'payable'\n\t below. By just adding that one keyword to a function, your contract can\n\t now accept Ether from anyone who calls this function. Accepting money can\n\t not get any easier than this!\n\t */\n\n\tfunction buy() payable returns (uint) {\n\t\tuint tokensToBuy = msg.value / tokenPrice;\n\t\tif (tokensToBuy > balanceTokens) throw;\n\t\tvoterInfo[msg.sender].voterAddress = msg.sender;\n\t\tvoterInfo[msg.sender].tokensBought += tokensToBuy;\n\t\tbalanceTokens -= tokensToBuy;\n\t\treturn tokensToBuy;\n\t}\n\n\tfunction tokensSold() constant returns (uint) {\n\t\treturn totalTokens - balanceTokens;\n\t}\n\n\tfunction voterDetails(address user) constant returns (uint, uint[]) {\n\t\treturn (voterInfo[user].tokensBought, voterInfo[user].tokensUsedPerCandidate);\n\t}\n\n\t/* All the ether sent by voters who purchased the tokens is in this\n\t contract's account. This method will be used to transfer out all those ethers\n\t in to another account. *** The way this function is written currently, anyone can call\n\t this method and transfer the balance in to their account. In reality, you should add\n\t check to make sure only the owner of this contract can cash out.\n\t */\n\n\tfunction transferTo(address account) {\n\t\taccount.transfer(this.balance);\n\t}\n\n\tfunction allCandidates() constant returns (bytes32[]) {\n\t\treturn candidateList;\n\t}\n\n}\n",
  "sourcePath": "C:\\Users\\User\\Documents\\InOut4.0-master\\contracts\\Voting.sol",
  "compiler": {
    "name": "solc",
    "version": "0.4.26+commit.4563c3fc.Emscripten.clang"
  },
  "schemaVersion": "3.4.10",
  "updatedAt": "2023-04-08T06:55:15.884Z",
  "devdoc": {
    "methods": {}
  },
  "userdoc": {
    "methods": {}
  }
}